{
  "contractName": "OrderRecord",
  "abi": [
    {
      "anonymous": false,
      "inputs": [
        {
          "indexed": true,
          "internalType": "uint256",
          "name": "orderId",
          "type": "uint256"
        },
        {
          "indexed": true,
          "internalType": "bytes32",
          "name": "orderHash",
          "type": "bytes32"
        },
        {
          "indexed": false,
          "internalType": "uint256",
          "name": "customerId",
          "type": "uint256"
        },
        {
          "indexed": false,
          "internalType": "uint256",
          "name": "totalPrice",
          "type": "uint256"
        },
        {
          "indexed": false,
          "internalType": "uint256",
          "name": "timestamp",
          "type": "uint256"
        },
        {
          "indexed": true,
          "internalType": "address",
          "name": "recordedBy",
          "type": "address"
        }
      ],
      "name": "OrderRecorded",
      "type": "event"
    },
    {
      "anonymous": false,
      "inputs": [
        {
          "indexed": true,
          "internalType": "uint256",
          "name": "orderId",
          "type": "uint256"
        },
        {
          "indexed": false,
          "internalType": "bytes32",
          "name": "orderHash",
          "type": "bytes32"
        },
        {
          "indexed": false,
          "internalType": "bool",
          "name": "isValid",
          "type": "bool"
        }
      ],
      "name": "OrderVerified",
      "type": "event"
    },
    {
      "inputs": [
        {
          "internalType": "uint256",
          "name": "",
          "type": "uint256"
        }
      ],
      "name": "orderHashes",
      "outputs": [
        {
          "internalType": "bytes32",
          "name": "",
          "type": "bytes32"
        }
      ],
      "stateMutability": "view",
      "type": "function",
      "constant": true
    },
    {
      "inputs": [
        {
          "internalType": "uint256",
          "name": "",
          "type": "uint256"
        }
      ],
      "name": "recordedAt",
      "outputs": [
        {
          "internalType": "uint256",
          "name": "",
          "type": "uint256"
        }
      ],
      "stateMutability": "view",
      "type": "function",
      "constant": true
    },
    {
      "inputs": [],
      "name": "totalOrdersRecorded",
      "outputs": [
        {
          "internalType": "uint256",
          "name": "",
          "type": "uint256"
        }
      ],
      "stateMutability": "view",
      "type": "function",
      "constant": true
    },
    {
      "inputs": [
        {
          "internalType": "uint256",
          "name": "_orderId",
          "type": "uint256"
        },
        {
          "internalType": "uint256",
          "name": "_customerId",
          "type": "uint256"
        },
        {
          "internalType": "uint256",
          "name": "_totalPrice",
          "type": "uint256"
        },
        {
          "internalType": "bytes32",
          "name": "_orderHash",
          "type": "bytes32"
        }
      ],
      "name": "recordOrder",
      "outputs": [],
      "stateMutability": "nonpayable",
      "type": "function"
    },
    {
      "inputs": [
        {
          "internalType": "uint256",
          "name": "_orderId",
          "type": "uint256"
        }
      ],
      "name": "getOrderHash",
      "outputs": [
        {
          "internalType": "bytes32",
          "name": "",
          "type": "bytes32"
        }
      ],
      "stateMutability": "view",
      "type": "function",
      "constant": true
    },
    {
      "inputs": [
        {
          "internalType": "uint256",
          "name": "_orderId",
          "type": "uint256"
        }
      ],
      "name": "getOrderTimestamp",
      "outputs": [
        {
          "internalType": "uint256",
          "name": "",
          "type": "uint256"
        }
      ],
      "stateMutability": "view",
      "type": "function",
      "constant": true
    },
    {
      "inputs": [
        {
          "internalType": "uint256",
          "name": "_orderId",
          "type": "uint256"
        },
        {
          "internalType": "bytes32",
          "name": "_expectedHash",
          "type": "bytes32"
        }
      ],
      "name": "verifyOrderHash",
      "outputs": [
        {
          "internalType": "bool",
          "name": "isValid",
          "type": "bool"
        }
      ],
      "stateMutability": "nonpayable",
      "type": "function"
    },
    {
      "inputs": [
        {
          "internalType": "uint256",
          "name": "_orderId",
          "type": "uint256"
        }
      ],
      "name": "isOrderRecorded",
      "outputs": [
        {
          "internalType": "bool",
          "name": "",
          "type": "bool"
        }
      ],
      "stateMutability": "view",
      "type": "function",
      "constant": true
    },
    {
      "inputs": [],
      "name": "getTotalRecordedOrders",
      "outputs": [
        {
          "internalType": "uint256",
          "name": "",
          "type": "uint256"
        }
      ],
      "stateMutability": "view",
      "type": "function",
      "constant": true
    }
  ],
  "bytecode": "0x608060405234801561001057600080fd5b506108c9806100206000396000f3fe608060405234801561001057600080fd5b50600436106100935760003560e01c80635b8b7eb4116100665780635b8b7eb414610132578063a72467ce14610162578063b9f0d68e14610192578063c5caccce146101c2578063df69558c146101e057610093565b806307989df6146100985780630976d678146100c85780631a831fb9146100e45780633726ac7014610114575b600080fd5b6100b260048036038101906100ad9190610509565b610210565b6040516100bf9190610564565b60405180910390f35b6100e260048036038101906100dd919061057f565b61027d565b005b6100fe60048036038101906100f991906105e6565b6103fd565b60405161010b9190610622565b60405180910390f35b61011c61041a565b6040516101299190610622565b60405180910390f35b61014c600480360381019061014791906105e6565b610420565b6040516101599190610564565b60405180910390f35b61017c600480360381019061017791906105e6565b610442565b6040516101899190610622565b60405180910390f35b6101ac60048036038101906101a791906105e6565b61045a565b6040516101b9919061064c565b60405180910390f35b6101ca610476565b6040516101d79190610622565b60405180910390f35b6101fa60048036038101906101f591906105e6565b610480565b604051610207919061064c565b60405180910390f35b600080600080858152602001908152602001600020549050828114801561023a57506000801b8114155b9150837fb3d1a7c2515f952cb0b008e0ec534c9ebe176a2748042decd08b60cad1d4ac96848460405161026e929190610667565b60405180910390a25092915050565b600084116102c0576040517f08c379a00000000000000000000000000000000000000000000000000000000081526004016102b7906106ed565b60405180910390fd5b6000801b8103610305576040517f08c379a00000000000000000000000000000000000000000000000000000000081526004016102fc90610759565b60405180910390fd5b6000801b600080868152602001908152602001600020541461035c576040517f08c379a0000000000000000000000000000000000000000000000000000000008152600401610353906107c5565b60405180910390fd5b80600080868152602001908152602001600020819055504260016000868152602001908152602001600020819055506002600081548092919061039e90610814565b91905055503373ffffffffffffffffffffffffffffffffffffffff1681857f5b9b37b6cada252b6e609fe73611b9cb951084bd18f431b2cfb3f092c52ac7938686426040516103ef9392919061085c565b60405180910390a450505050565b600060016000838152602001908152602001600020549050919050565b60025481565b60008060001b6000808481526020019081526020016000205414159050919050565b60016020528060005260406000206000915090505481565b6000806000838152602001908152602001600020549050919050565b6000600254905090565b60006020528060005260406000206000915090505481565b600080fd5b6000819050919050565b6104b08161049d565b81146104bb57600080fd5b50565b6000813590506104cd816104a7565b92915050565b6000819050919050565b6104e6816104d3565b81146104f157600080fd5b50565b600081359050610503816104dd565b92915050565b600080604083850312156105205761051f610498565b5b600061052e858286016104be565b925050602061053f858286016104f4565b9150509250929050565b60008115159050919050565b61055e81610549565b82525050565b60006020820190506105796000830184610555565b92915050565b6000806000806080858703121561059957610598610498565b5b60006105a7878288016104be565b94505060206105b8878288016104be565b93505060406105c9878288016104be565b92505060606105da878288016104f4565b91505092959194509250565b6000602082840312156105fc576105fb610498565b5b600061060a848285016104be565b91505092915050565b61061c8161049d565b82525050565b60006020820190506106376000830184610613565b92915050565b610646816104d3565b82525050565b6000602082019050610661600083018461063d565b92915050565b600060408201905061067c600083018561063d565b6106896020830184610555565b9392505050565b600082825260208201905092915050565b7f496e76616c6964206f7264657220494400000000000000000000000000000000600082015250565b60006106d7601083610690565b91506106e2826106a1565b602082019050919050565b60006020820190508181036000830152610706816106ca565b9050919050565b7f496e76616c6964206f7264657220686173680000000000000000000000000000600082015250565b6000610743601283610690565b915061074e8261070d565b602082019050919050565b6000602082019050818103600083015261077281610736565b9050919050565b7f4f7264657220616c7265616479207265636f7264656400000000000000000000600082015250565b60006107af601683610690565b91506107ba82610779565b602082019050919050565b600060208201905081810360008301526107de816107a2565b9050919050565b7f4e487b7100000000000000000000000000000000000000000000000000000000600052601160045260246000fd5b600061081f8261049d565b91507fffffffffffffffffffffffffffffffffffffffffffffffffffffffffffffffff8203610851576108506107e5565b5b600182019050919050565b60006060820190506108716000830186610613565b61087e6020830185610613565b61088b6040830184610613565b94935050505056fea26469706673582212200c0c37df6cfdc9a0be6919473f0dd3f3de8f3c403bdec9b8331f4b506daf8bb864736f6c63430008140033",
  "immutableReferences": {},
  "source": "// SPDX-License-Identifier: MIT\r\npragma solidity ^0.8.20;\r\n\r\n/**\r\n * OrderRecord Contract\r\n * Records cryptographic hashes of orders for immutable audit trail\r\n * Each order is recorded once with its hash for verification and tracking\r\n * \r\n * Use case: E-commerce platform (ChocoJell)\r\n * - Record order_id hash when order is created\r\n * - Immutable proof that order existed at specific time\r\n * - Verify order integrity later if needed\r\n * \r\n * Hash Format: keccak256(abi.encodePacked(orderId, customerId, totalPrice, orderDate))\r\n * This ensures order cannot be modified after recording\r\n */\r\ncontract OrderRecord {\r\n    // Mapping: order_id -> order_hash (bytes32)\r\n    mapping(uint256 => bytes32) public orderHashes;\r\n    \r\n    // Mapping: order_id -> recorded timestamp\r\n    mapping(uint256 => uint256) public recordedAt;\r\n    \r\n    // Total orders recorded on this contract\r\n    uint256 public totalOrdersRecorded;\r\n    \r\n    // Events for logging\r\n    event OrderRecorded(\r\n        uint256 indexed orderId,\r\n        bytes32 indexed orderHash,\r\n        uint256 customerId,\r\n        uint256 totalPrice,\r\n        uint256 timestamp,\r\n        address indexed recordedBy\r\n    );\r\n    \r\n    event OrderVerified(\r\n        uint256 indexed orderId, \r\n        bytes32 orderHash, \r\n        bool isValid\r\n    );\r\n    \r\n    /**\r\n     * Record a new order hash to blockchain\r\n     * Only records once per order ID (prevents duplicate recording)\r\n     * \r\n     * @param _orderId Order ID from database\r\n     * @param _customerId Customer ID from database\r\n     * @param _totalPrice Total price in smallest unit (IDR cents or equivalent)\r\n     * @param _orderHash Pre-calculated Keccak256 hash of order data\r\n     * \r\n     * Requirements:\r\n     * - Order ID must be > 0\r\n     * - Order hash must not be empty (bytes32(0))\r\n     * - Order must not already be recorded\r\n     */\r\n    function recordOrder(\r\n        uint256 _orderId,\r\n        uint256 _customerId,\r\n        uint256 _totalPrice,\r\n        bytes32 _orderHash\r\n    ) external {\r\n        require(_orderId > 0, \"Invalid order ID\");\r\n        require(_orderHash != bytes32(0), \"Invalid order hash\");\r\n        require(orderHashes[_orderId] == bytes32(0), \"Order already recorded\");\r\n        \r\n        orderHashes[_orderId] = _orderHash;\r\n        recordedAt[_orderId] = block.timestamp;\r\n        totalOrdersRecorded++;\r\n        \r\n        emit OrderRecorded(\r\n            _orderId,\r\n            _orderHash,\r\n            _customerId,\r\n            _totalPrice,\r\n            block.timestamp,\r\n            msg.sender\r\n        );\r\n    }\r\n    \r\n    /**\r\n     * Get order hash from blockchain\r\n     * @param _orderId Order ID to query\r\n     * @return Order hash (bytes32(0) if not found)\r\n     */\r\n    function getOrderHash(uint256 _orderId) external view returns (bytes32) {\r\n        return orderHashes[_orderId];\r\n    }\r\n    \r\n    /**\r\n     * Get order recorded timestamp\r\n     * @param _orderId Order ID to query\r\n     * @return Timestamp in seconds (0 if not recorded)\r\n     */\r\n    function getOrderTimestamp(uint256 _orderId) external view returns (uint256) {\r\n        return recordedAt[_orderId];\r\n    }\r\n    \r\n    /**\r\n     * Verify order hash matches recorded hash\r\n     * Useful for proving order integrity\r\n     * \r\n     * @param _orderId Order ID to verify\r\n     * @param _expectedHash Hash to verify against\r\n     * @return isValid True if hash matches and order is recorded\r\n     */\r\n    function verifyOrderHash(uint256 _orderId, bytes32 _expectedHash) \r\n        external \r\n        returns (bool isValid) \r\n    {\r\n        bytes32 storedHash = orderHashes[_orderId];\r\n        isValid = storedHash == _expectedHash && storedHash != bytes32(0);\r\n        \r\n        emit OrderVerified(_orderId, _expectedHash, isValid);\r\n        return isValid;\r\n    }\r\n    \r\n    /**\r\n     * Check if order is recorded\r\n     * @param _orderId Order ID to check\r\n     * @return True if order is recorded\r\n     */\r\n    function isOrderRecorded(uint256 _orderId) external view returns (bool) {\r\n        return orderHashes[_orderId] != bytes32(0);\r\n    }\r\n    \r\n    /**\r\n     * Get total recorded orders count\r\n     * @return Total count of orders recorded\r\n     */\r\n    function getTotalRecordedOrders() external view returns (uint256) {\r\n        return totalOrdersRecorded;\r\n    }\r\n}\r\n",
  "sourcePath": "C:\\laragon\\www\\ChocoJell\\contracts\\OrderRecord.sol",
  "compiler": {
    "name": "solc",
    "version": "0.8.20+commit.a1b79de6.Emscripten.clang"
  },
  "schemaVersion": "3.4.16",
  "updatedAt": "2026-05-31T08:41:30.246Z",
  "networkType": "ethereum",
  "devdoc": {
    "kind": "dev",
    "methods": {
      "getOrderHash(uint256)": {
        "params": {
          "_orderId": "Order ID to query"
        },
        "returns": {
          "_0": "Order hash (bytes32(0) if not found)"
        }
      },
      "getOrderTimestamp(uint256)": {
        "params": {
          "_orderId": "Order ID to query"
        },
        "returns": {
          "_0": "Timestamp in seconds (0 if not recorded)"
        }
      },
      "getTotalRecordedOrders()": {
        "returns": {
          "_0": "Total count of orders recorded"
        }
      },
      "isOrderRecorded(uint256)": {
        "params": {
          "_orderId": "Order ID to check"
        },
        "returns": {
          "_0": "True if order is recorded"
        }
      },
      "recordOrder(uint256,uint256,uint256,bytes32)": {
        "params": {
          "_customerId": "Customer ID from database",
          "_orderHash": "Pre-calculated Keccak256 hash of order data  Requirements: - Order ID must be > 0 - Order hash must not be empty (bytes32(0)) - Order must not already be recorded",
          "_orderId": "Order ID from database",
          "_totalPrice": "Total price in smallest unit (IDR cents or equivalent)"
        }
      },
      "verifyOrderHash(uint256,bytes32)": {
        "params": {
          "_expectedHash": "Hash to verify against",
          "_orderId": "Order ID to verify"
        },
        "returns": {
          "isValid": "True if hash matches and order is recorded"
        }
      }
    },
    "version": 1
  },
  "userdoc": {
    "kind": "user",
    "methods": {
      "getOrderHash(uint256)": {
        "notice": "Get order hash from blockchain"
      },
      "getOrderTimestamp(uint256)": {
        "notice": "Get order recorded timestamp"
      },
      "getTotalRecordedOrders()": {
        "notice": "Get total recorded orders count"
      },
      "isOrderRecorded(uint256)": {
        "notice": "Check if order is recorded"
      },
      "recordOrder(uint256,uint256,uint256,bytes32)": {
        "notice": "Record a new order hash to blockchain Only records once per order ID (prevents duplicate recording) "
      },
      "verifyOrderHash(uint256,bytes32)": {
        "notice": "Verify order hash matches recorded hash Useful for proving order integrity "
      }
    },
    "notice": "OrderRecord Contract Records cryptographic hashes of orders for immutable audit trail Each order is recorded once with its hash for verification and tracking  Use case: E-commerce platform (ChocoJell) - Record order_id hash when order is created - Immutable proof that order existed at specific time - Verify order integrity later if needed  Hash Format: keccak256(abi.encodePacked(orderId, customerId, totalPrice, orderDate)) This ensures order cannot be modified after recording",
    "version": 1
  }
}